:100000000C9435000C945D000C945D000C945D0024
:100010000C945D000C945D000C94A8000C945D00A1
:100020000C945D000C945D000C945D000C945D00DC
:100030000C945D000C945D000C945F000C945D00CA
:100040000C945D000C945D000C945D000C945D00BC
:100050000C945D000C949D000C945D000C945D006C
:100060000C945D000C945D004E0611241FBECFEF72
:10007000D8E0DEBFCDBF11E0A0E0B1E0E2ECFEE0F1
:1000800002C005900D92A630B107D9F721E0A6E095
:10009000B1E001C01D92AD3EB207E1F710E0CAE643
:1000A000D0E004C02297FE010E944507C836D10760
:1000B000C9F70E9421010C945F070C9492001F92D3
:1000C0000F920FB60F9211242F933F934F935F938C
:1000D0006F937F938F939F93AF93BF93EF93FF9310
:1000E00086E291E00E94AF0486E291E00E949005D2
:1000F00080910B0190910C01019690930C018093DB
:100100000B01FF91EF91BF91AF919F918F917F91E3
:100110006F915F914F913F912F910F900FBE0F9074
:100120001F9018951F920F920FB60F921124000086
:100130000F900FBE0F901F9018951F920F920FB641
:100140000F92112413BE0F900FBE0F901F901895A1
:100150001F920F920FB60F9211248F9380910A0174
:100160008F5F80930A018F910F900FBE0F901F90A9
:100170001895CF9360E070E081E00E941D0701C0F8
:1001800000000E943B078130D9F360E070E08EEB05
:100190000E9415070E941107809306010E94110713
:1001A00080930701C7E00E941107C150E1F7CF918A
:1001B000089582E083BFEAE7F0E080818064808375
:1001C00083B7816083BF889508951092C50080E150
:1001D0008093C40086E08093C20088E18093C100D0
:1001E00081E090E00E9449078F3F19F080930E0153
:1001F00003C080E880930E0186E291E00E946103D3
:1002000086E291E00E94040462E086E291E00E94AE
:100210006C038CE987BD8AEA88BD82E084BD95E0E5
:1002200095BD80936E0088EC80937C00EAE7F0E057
:1002300090819F68908391E090930F018093640078
:10024000089588E10FB6F8948093600010926000E2
:100250000FBE0E94E5000E94B90078948BE0E0E1B7
:10026000F1E0DF011D928A95E9F705EE11E00F2E0E
:10027000FEE6CF2ED12CF02DC0E6D0E00F2EFDE112
:10028000EF2EF1E0FF2EF02D0F2EF2E18F2EF1E098
:100290009F2EF02D0F2EF1E16F2EF1E07F2EF02D2D
:1002A0000F2EF4E14F2EF1E05F2EF02D0F2EF5E131
:1002B000AF2EF1E0BF2EF02D0F2EF6E12F2EF1E044
:1002C0003F2EF02D80910901813009F580910A01BE
:1002D000883099F413BE88E18883188210920A014D
:1002E0001092090186E291E00E94C7030E94B900C2
:1002F00082E085BBF6018083E5CF888180648883B6
:1003000084E083BF83B7816083BF8895DBCFD8014A
:100310008C91882309F4D9C06BE171E086E291E009
:100320000E948E02F7018081833009F0ADC084E025
:10033000D4018C9380911B01F301808390911F0164
:10034000D2019C9380912101F101808321E0D501AC
:100350002C9381113EC091111DC00E94D900809143
:1003600078009091790090910E01891B83518093C0
:10037000080180910801E7E1F1E08083A7EEB1E098
:100380008C9180930D0160E171E086E291E00E9422
:10039000B90298CF953071F46091220180910E01DD
:1003A000681709F48FCF60930E0181E090E00E94FE
:1003B000510788CF963009F085CF80910E01E7E193
:1003C000F1E0808360E171E086E291E00E94B90291
:1003D00079CF8130E9F4913059F48091220188235A
:1003E00021F081E080930F016DCF10920F016ACF51
:1003F000911168CF80910F01A7E1B1E08C9360E18A
:1004000071E086E291E00E94B90280930D015ACF1B
:10041000823069F5F501808380910601A7E1B1E0A2
:100420008C9380910701E8E1F1E0808360E171E065
:1004300086E291E00E94B902A7EEB1E08C91813092
:1004400031F40000E7EEF1E080818130D1F3A7EED6
:10045000B1E08C91811136CF80910B0190910C010C
:10046000845D9E4F90930C0180930B012BCF8330C2
:1004700009F028CF82E0F501808360E171E086E237
:1004800091E00E94B9021ECF8081853009F01ACF19
:100490008AE0F401808380911B01D3018C9383E077
:1004A000F2018083D5018C93F101108284E8A7E1E9
:1004B000B1E08C9386E0E8E1F1E0808360E171E0F7
:1004C00086E291E00E94B902FDCE80910B019091ED
:1004D0000C018D329140D0F010920C0110920B0162
:1004E000D6011C9284E083BF89E3888381E68883F8
:1004F00010920A0181E08093090186E291E00E9456
:10050000360683B7816083BF8895DCCE83B7816070
:1005100083BF889583B78E7F83BFD4CECF93DF937D
:10052000FC01E154FF4F2081222301F1F894EC01FA
:10053000CD5ADF4F2881FC013BE0239FE00DF11DE8
:10054000112471962BE0DB0101900D922A95E1F7C1
:10055000FC01E154FF4F20812150208328812F5F2F
:1005600028832881263009F418827894DF91CF916E
:100570000895CF93DF93FC01E054FF4F20812111B8
:100580004CC0EE55F1092081213009F448C0F8949F
:10059000E05AFF4F208131E0320F11F0308305C067
:1005A000FC01EE53FF4F2E5F2083FC01EE53FF4F03
:1005B0002081FB012383FC012381FB012083EC01CB
:1005C000CF59DF4F2881DC01FBE02F9FA00DB11D2B
:1005D0001124AB5ABF4F2BE0FB0101900D922A95DD
:1005E000E1F7FC01EE59FF4F20812F5F2083288126
:1005F0002F5F28832881213009F41882FC01E05400
:10060000FF4F21E0208331962083EE55F1092083AE
:100610007894E15AFF4F808103C080E001C080E000
:10062000DF91CF910895CF93DF93DB01FC01E2547A
:10063000FF4F20812830D1F13197408111963C91B4
:1006400011972BE0EC01249FC00DD11D1124CC5932
:10065000DF4F388340813C91EC01249FC00DD11DB8
:100660001124CB59DF4F3883408113963C91DC0134
:10067000249FA00DB11D1124A959BF4F3C93308177
:10068000DC01239FA00DB11D1124AA59BF4F21E009
:100690002C93DC01A254BF4F2C912F5F2C9320810F
:1006A0002F5F20832081283009F41082DF91CF91C1
:1006B00008952CEE31E0FC013583248328E0228369
:1006C000089524B1266024B929982A9AFC018481CE
:1006D00095810E9453060895FC0163830895DF927B
:1006E000EF92FF920F931F93CF93DF937C01EA0168
:1006F000D22E2A98FC01848195810E945B06209766
:1007000079F0002369F010E06881F7018481958118
:100710000E945B06D11088831F5F21961013F4CFCF
:100720002A9ADF91CF911F910F91FF90EF90DF9068
:1007300008950F936F716062022F20E00E946F0393
:100740000F910895CF93DF93EC01299823E040E0C7
:1007500051E06AE00E94990323E040E051E060E14B
:10076000CE010E949903299ADF91CF910895CF93EA
:10077000DF931F92CDB7DEB7498321E0AE014F5F13
:100780005F4F0E9499030F90DF91CF910895CF930F
:10079000DF93EC01188229984A81436060E00E944F
:1007A000B70340E767E0CE010E94B703299ADF91C3
:1007B000CF91089521E0FC01208329984281426075
:1007C00060E00E94B70308950F93CF93DF931F92C9
:1007D000CDB7DEB72FEF298301E021E0AE014F5FF7
:1007E0005F4F67E00E946F0389810F90DF91CF9187
:1007F0000F9108950F9300E020E040E050E062EE9A
:100800000E946F030F910895CF93DF93EC0140E0B6
:1008100061E00E94B70341E062E0CE010E94B703AD
:1008200041E063E0CE010E94B70340E064E0CE0106
:100830000E94B70388E7898348E765E0CE010E94FC
:10084000B70347E266E0CE010E94B70340E06DE1E6
:10085000CE010E94B70340E06CE1CE010E94B703D5
:100860004BE061E1CE010E94B7034BE062E1CE01B3
:100870000E94B703CE010E94A203CE010E94FA0398
:10088000CE010E94C703DF91CF910895DF92EF92CE
:10089000FF920F931F93CF93DF937C01EA01D22E37
:1008A0002A98FC01848195810E945B066FEFF70115
:1008B000848195810E945B06209779F0002369F07E
:1008C00010E06881F701848195810E945B06D11058
:1008D00088831F5F21961013F4CF2A9ADF91CF915E
:1008E0001F910F91FF90EF90DF9008950F93CF939A
:1008F000DF931F92CDB7DEB701E021E0AE014F5F7D
:100900005F4F67E10E944604898181700F90DF91FB
:10091000CF910F910895CF93DF93EC010E94E403F0
:1009200086FD06C0CE010E94760491E0892701C0B1
:1009300081E0DF91CF9108950F93CF93DF93EC0186
:10094000AB010BE021E061E60E94460440E467E071
:10095000CE010E94B703DF91CF910F9108952F929E
:100960003F924F925F926F927F928F929F92AF923F
:10097000BF92CF92DF92EF92FF920F931F93CF938C
:10098000DF93EC01FC01ED53FF4F80818F5F80838B
:100990000F2EF5E03F2EF02D8E010A5F1F4F5E01F6
:1009A00080ECA80EB11C4E01E0E68E0E911C0F2EBD
:1009B000FBE02F2EF02D2E01F1EC4F0E511C3E01CD
:1009C00082E6680E711C6E01EFEBCE0ED11C7E012B
:1009D000F4E5EF0EF11C53C0B801CE010E949C0457
:1009E0009F818B81981721F08F818F3F09F045C03F
:1009F0008885813019F088858230A9F4F5018081DD
:100A00008330D9F5F4018081FE01289EE00DF11DAF
:100A10001124E85AFF4F9081898598132EC035C064
:100A2000F40110822AC08885893029F4B801CE01EA
:100A30000E94130322C0F60180818630F1F0F70195
:100A40008081DE01289EA00DB11D11245196F80170
:100A5000822D01900D928A95E1F7F60180818F5FDA
:100A60008083F70180818F5F80838081863009F4E5
:100A70001082B801CE010E9413033A94B1F0CE0166
:100A80000E948B048111A8CF10C0F5011082F201E1
:100A90001082F301808181508083F40180818F5F17
:100AA00080838081813049F7BBCFDF91CF911F9147
:100AB0000F91FF90EF90DF90CF90BF90AF909F90FD
:100AC0008F907F906F905F904F903F902F90089500
:100AD000EF92FF920F93CF93DF931F92CDB7DEB7C4
:100AE0007C01FC018081882389F001E021E0AE01D6
:100AF0004F5F5F4F67E1C7010E944604898184FF11
:100B000007C0C7010E94C70380E003C080E001C0A6
:100B100081E00F90DF91CF910F91FF90EF900895BA
:100B2000CF92DF92EF92FF920F93CF93DF93EC017E
:100B3000FC01E254FF4F8081882391F17E012CEB70
:100B4000E20EF11CF70180819E014BE0849F200D95
:100B5000311D1124F901EC59FF4F6F0100E020E035
:100B600040E050E061EECE010E946F030BE020E018
:100B7000A60160EACE010E946F03CE010E94DA0353
:100B8000299AFE01E254FF4F808181508083F70152
:100B900080818F5F80838081883009F03CC035C0C0
:100BA000FE01E054FF4F8081813019F08081823056
:100BB000B9F5FE01E05AFF4F80819E014BE0849F12
:100BC000200D311D1124F901EB5AFF4F7F0100E088
:100BD00020E040E050E061EECE010E946F030BE0A8
:100BE00020E0A70160EACE010E946F03CE010E94BF
:100BF000DA03299A83E0FE01E054FF4F80833396A5
:100C000080818D5F3296808306C0FE01E454FF4FE1
:100C1000108201C00000CE010E9468058111FACF48
:100C2000FE01E054FF4F80818330C1F43396908100
:100C300032968081981312C03597108284E03196E5
:100C40008083EF55F10980818150808332978081C4
:100C50008F5F80838081813009F41082DF91CF9192
:100C60000F91FF90EF90DF90CF9008950F93CF9367
:100C7000DF93EC0129984A8160E00E94B703CE011E
:100C80000E94FA0300E020E040E050E061EECE0177
:100C90000E946F03DF91CF910F91089586E291E05A
:100CA0000E945903089584B1886284B980E58CBD9F
:100CB00081E08DBD08956EBD8DB58EB5089589B165
:100CC000847008955A9A529A0895CF93DF93C82F4B
:100CD000DFB7F8945A98529A8AE08A95F1F700C0E3
:100CE000CC2311F052985A9A85E48A95F1F70000C6
:100CF0004A9BC0E085EE8A95F1F700005A9A529817
:100D000061110E946206DFBF85E38A95F1F700005A
:100D10008C2FDF91CF9108955A98529A8FE797E0E0
:100D20000197F1F700C000009FB7F89452985A9AC3
:100D3000EFEFF0E03197F1F700C0000089B19FBFFD
:100D4000EFE7F6E03197F1F700C000004A9B02C0E0
:100D50008470089581E0089560E081700E946506C6
:100D60000895CF93DF93C82FD8E08C2F81700E9415
:100D7000AC062C2F30E035952795C22F8111C06825
:100D8000D15099F78C2FDF91CF910895CF93DF93B6
:100D9000D82FC8E0C13031F060E08D2F81700E9403
:100DA000650605C061E08D2F81700E9465062D2FBC
:100DB00030E035952795D22F8111D068C15051F779
:100DC0008D2FDF91CF910895EF92FF920F931F9394
:100DD000CF93DF93E82EEB01F42E0E948C06209730
:100DE00069F085E50E94B1068E01085F1F4F899169
:100DF0000E94B106C017D107D1F703C08CEC0E9446
:100E0000B106FF2021F08E2D0E94C60603C08E2D54
:100E10000E94B106DF91CF911F910F91FF90EF904B
:100E200008958FEF0E94B106089540E00E94E40605
:100E3000089541E00E94E40608951F93CF93DF9345
:100E4000182FEB010E948C060E945F06882371F028
:100E5000113031F0BE0184E40E94190780E007C020
:100E6000BE0184E40E94150780E001C082E0DF91AA
:100E7000CF911F91089581E00E94AC0691E081110D
:100E800090E0892F0895EE0FFF1F0590F491E02D5B
:100E90000994F999FECF92BD81BDF89A992780B542
:100EA0000895262FF999FECF1FBA92BD81BD20BDAE
:100EB0000FB6F894FA9AF99A0FBE01960895F8942D
:020EC000FFCF62
:060EC200686F6E7A61000A
:00000001FF
