:100000000C94B6000C94DE000C94DE000C94DE0020
:100010000C94DE000C94DE000C94DE000C94DE00E8
:100020000C94DE000C94DE000C94DE000C94DE00D8
:100030000C94DE000C94DE000C94E0000C94DE00C6
:100040000C94DE000C94DE000C941A010C94DE007B
:100050000C94DE000C94DE000C94DE000C94DE00A8
:100060000C94DE000C94DE006E616E00696E66001A
:1000700000407A10F35A00A0724E18090010A5D45F
:10008000E80000E87648170000E40B54020000CABC
:100090009A3B000000E1F505000080969800000002
:1000A00040420F000000A086010000001027000061
:1000B0000000E803000000006400000000000A00E7
:1000C000000000000100000000002C76D888DC67EA
:1000D0004F0823DFC1DFAE59E1B1B796E5E3E45342
:1000E000C63AE651997696E8E6C28426EB898C9B5F
:1000F00062ED407C6FFCEFBC9C9F40F2BAA56FA5FF
:10010000F490055A2AF75C936B6CF9676DC11BFC80
:10011000E0E40D47FEF520E6B500D0ED902E03009B
:10012000943577050080841E080000204E0A0000E8
:1001300000C80C333333330F986E12831141EF8DA7
:100140002114893BE65516CFFEE6DB18D1844B38E7
:100150001BF77C1D901DA4BBE424203284725E2218
:100160008100C9F124ECA1E53D27D30511241FBE70
:10017000CFEFD8E0DEBFCDBF11E0A0E0B1E0E8E313
:10018000F6E102C005900D92A032B107D9F722E046
:10019000A0E2B1E001C01D92A432B207E1F711E084
:1001A000CCE6D1E004C02297FE010E949809CA362D
:1001B000D107C9F70E948C010C941A0B0C940F0103
:1001C0001F920F920FB60F9211242F933F934F93CC
:1001D0005F936F937F938F939F93AF93BF93EF93AF
:1001E000FF938DE591E00E944C048DE591E00E9423
:1001F0002D05809146018F5F80934601FF91EF911D
:10020000BF91AF919F918F917F916F915F914F912E
:100210003F912F910F900FBE0F901F9018951F9236
:100220000F920FB60F92112400000F900FBE0F9087
:100230001F9018951F920F920FB60F9211248F9353
:100240009F93EF93FF939091C60080914401811199
:100250000AC09E3FD1F481E0809344011092450191
:100260001092460112C0809145018B3019F4109212
:1002700044010BC0E0914501F0E0E95BFE4F908343
:10028000809145018F5F80934501FF91EF919F9190
:100290008F910F900FBE0F901F901895CF93DF9303
:1002A000662381F0282FA82FB92FE0ECF0E0C6ECF0
:1002B000D0E0808185FFFDCF8D9188838A2F821BBE
:1002C0008617B8F3DF91CF9108951092C50080E1B1
:1002D0008093C40086E08093C20088E98093C100C7
:1002E0008DE591E00E94FE0261E08DE591E00E94C3
:1002F00009038DE591E00E94A1038CE987BD8AEA9C
:1003000088BD82E084BD95E095BD80936E0088EC49
:10031000809364007894089588E10FB6F8948093F0
:100320006000109260000FBE0E946501E7E4F1E0FA
:100330008BE0DF011D928A95E9F781E0808382E0FE
:100340008093480183E08093490110924B01109201
:100350004C0110924D018DE0E0E0F1E0A0E2B1E04F
:1003600001900D928A95E1F7E0E2F1E00190002022
:10037000E9F73197BF016052714080E291E00E943D
:100380004E010CE112E0CEE1D2E0FF24F394F8013B
:100390008081882379F08091440181110BC062E54E
:1003A00071E08DE591E00E942B026BE082E591E027
:1003B0000E944E0180914401882379F0809145018B
:1003C0008A3059F436C062E08DE091E00E944E011F
:1003D0001092430102C0F0924301809143018823AF
:1003E000E9F08881813081F519C062E080E191E017
:1003F0000E944E0111C08881843031F462E083E1B3
:1004000091E00E944E0108C08881853029F462E0A5
:1004100086E191E00E944E011092430180914401D7
:10042000882309F4B4CF80914601823008F4AFCF1D
:100430000FC067E471E08DE591E00E9456021092D2
:1004400044018111C8CFBFCF88818111D4CFCDCFD6
:10045000109244019CCFCF93DF93FC01E154FF4FF6
:100460002081222301F1F894EC01CD5ADF4F28813D
:10047000FC013BE0239FE00DF11D112471962BE060
:10048000DB0101900D922A95E1F7FC01E154FF4F49
:1004900020812150208328812F5F288328812630C6
:1004A00009F418827894DF91CF910895CF93DF9368
:1004B000FC01E054FF4F208121114CC0EE55F109A1
:1004C0002081213009F448C0F894E05AFF4F208180
:1004D00031E0320F11F0308305C0FC01EE53FF4FC5
:1004E0002E5F2083FC01EE53FF4F2081FB0123830D
:1004F000FC012381FB012083EC01CF59DF4F2881D0
:10050000DC01FBE02F9FA00DB11D1124AB5ABF4FA2
:100510002BE0FB0101900D922A95E1F7FC01EE59C9
:10052000FF4F20812F5F208328812F5F2883288120
:10053000213009F41882FC01E054FF4F21E02083B0
:1005400031962083EE55F10920837894E15AFF4FCC
:10055000808103C080E001C080E0DF91CF910895E9
:10056000CF93DF93DB01FC01E254FF4F2081283061
:10057000D1F13197408111963C9111972BE0EC011C
:10058000249FC00DD11D1124CC59DF4F38834081E9
:100590003C91EC01249FC00DD11D1124CB59DF4F9C
:1005A0003883408113963C91DC01249FA00DB11D3E
:1005B0001124A959BF4F3C933081DC01239FA00D2A
:1005C000B11D1124AA59BF4F21E02C93DC01A25484
:1005D000BF4F2C912F5F2C9320812F5F2083208190
:1005E000283009F41082DF91CF91089523E232E0A0
:1005F000FC013583248328E02283089524B12660FA
:1006000024B929982A9AFC01848195810E94D805F1
:100610000895FC0163830895DF92EF92FF920F9398
:100620001F93CF93DF937C01EA01D22E2A98FC011D
:10063000848195810E94E005209779F0002369F07C
:1006400010E06881F701848195810E94E005D11056
:1006500088831F5F21961013F4CF2A9ADF91CF91E0
:100660001F910F91FF90EF90DF9008950F936F719E
:100670006062022F20E00E940C030F910895CF9337
:10068000DF93EC01299823E049E151E06AE00E9400
:10069000360323E049E151E060E1CE010E943603D8
:1006A000299ADF91CF910895CF93DF931F92CDB711
:1006B000DEB7498321E0AE014F5F5F4F0E943603F2
:1006C0000F90DF91CF910895CF93DF93EC011882C3
:1006D00029984A81436060E00E94540340E767E044
:1006E000CE010E945403299ADF91CF91089521E011
:1006F000FC01208329984281426060E00E945403FB
:1007000008950F93CF93DF931F92CDB7DEB72FEFEE
:10071000298301E021E0AE014F5F5F4F67E00E9457
:100720000C0389810F90DF91CF910F9108950F9362
:1007300000E020E040E050E062EE0E940C030F91E8
:100740000895CF93DF93EC0140E061E00E945403F1
:1007500041E062E0CE010E94540341E063E0CE013B
:100760000E94540340E064E0CE010E94540388E7F5
:10077000898348E765E0CE010E94540347E266E0C2
:10078000CE010E94540340E06DE1CE010E9454036B
:1007900040E06CE1CE010E9454034BE061E1CE01E8
:1007A0000E9454034BE062E1CE010E945403CE014B
:1007B0000E943F03CE010E949703CE010E94640372
:1007C000DF91CF910895DF92EF92FF920F931F93E5
:1007D000CF93DF937C01EA01D22E2A98FC01848119
:1007E00095810E94E0056FEFF701848195810E9459
:1007F000E005209779F0002369F010E06881F701A7
:10080000848195810E94E005D11088831F5F219625
:100810001013F4CF2A9ADF91CF911F910F91FF907F
:10082000EF90DF9008950F93CF93DF931F92CDB792
:10083000DEB701E021E0AE014F5F5F4F67E10E944C
:10084000E303898181700F90DF91CF910F9108951B
:10085000CF93DF93EC010E94810386FD06C0CE0199
:100860000E94130491E0892701C081E0DF91CF91BC
:1008700008950F93CF93DF93EC01AB010BE021E0E0
:1008800061E60E94E30340E467E0CE010E94540366
:10089000DF91CF910F9108952F923F924F925F92E7
:1008A0006F927F928F929F92AF92BF92CF92DF9280
:1008B000EF92FF920F931F93CF93DF93EC01FC0114
:1008C000ED53FF4F80818F5F80830F2EF5E03F2E29
:1008D000F02D8E010A5F1F4F5E0180ECA80EB11C47
:1008E0004E01E0E68E0E911C0F2EFBE02F2EF02D18
:1008F0002E01F1EC4F0E511C3E0182E6680E711C78
:100900006E01EFEBCE0ED11C7E01F4E5EF0EF11C73
:1009100053C0B801CE010E9439049F818B81981782
:1009200021F08F818F3F09F045C08885813019F013
:1009300088858230A9F4F50180818330D9F5F401EE
:100940008081FE01289EE00DF11D1124E85AFF4F21
:100950009081898598132EC035C0F40110822AC079
:100960008885893029F4B801CE010E94B00222C0E6
:10097000F60180818630F1F0F7018081DE01289E4A
:10098000A00DB11D11245196F801822D01900D92F8
:100990008A95E1F7F60180818F5F8083F70180817E
:1009A0008F5F80838081863009F41082B801CE0188
:1009B0000E94B0023A94B1F0CE010E942804811145
:1009C000A8CF10C0F5011082F2011082F3018081DE
:1009D00081508083F40180818F5F808380818130AA
:1009E00049F7BBCFDF91CF911F910F91FF90EF900F
:1009F000DF90CF90BF90AF909F908F907F906F903F
:100A00005F904F903F902F900895EF92FF920F9339
:100A1000CF93DF931F92CDB7DEB77C01FC018081BD
:100A2000882389F001E021E0AE014F5F5F4F67E16D
:100A3000C7010E94E303898184FF07C0C7010E94A8
:100A4000640380E003C080E001C081E00F90DF918B
:100A5000CF910F91FF90EF900895CF92DF92EF9298
:100A6000FF920F93CF93DF93EC01FC01E254FF4F11
:100A70008081882391F17E012CEBE20EF11CF701BD
:100A800080819E014BE0849F200D311D1124F901CE
:100A9000EC59FF4F6F0100E020E040E050E061EED4
:100AA000CE010E940C030BE020E0A60160EACE011B
:100AB0000E940C03CE010E947703299AFE01E254A2
:100AC000FF4F808181508083F70180818F5F808319
:100AD0008081883009F03CC035C0FE01E054FF4FF2
:100AE0008081813019F080818230B9F5FE01E05AB1
:100AF000FF4F80819E014BE0849F200D311D11240A
:100B0000F901EB5AFF4F7F0100E020E040E050E0A8
:100B100061EECE010E940C030BE020E0A70160EA29
:100B2000CE010E940C03CE010E947703299A83E034
:100B3000FE01E054FF4F8083339680818D5F3296B3
:100B4000808306C0FE01E454FF4F108201C0000004
:100B5000CE010E9405058111FACFFE01E054FF4F3E
:100B600080818330C1F433969081329680819813CE
:100B700012C03597108284E031968083EF55F109D9
:100B8000808181508083329780818F5F80838081D4
:100B9000813009F41082DF91CF910F91FF90EF9097
:100BA000DF90CF9008958DE591E00E94F6020895C0
:100BB00084B1886284B980E58CBD81E08DBD0895E3
:100BC0006EBD8DB58EB50895A3E1B0E0EAEEF5E017
:100BD0000C945F097C011B016A01FC0117821682DB
:100BE000838181FF66C3BE016F5F7F4F4B01F701B9
:100BF0009381F10193FD859193FF81911F018823DA
:100C000009F453C3853239F493FD859193FF8191A3
:100C10001F01853239F4B70190E00E948A0A56011B
:100C20006501E5CF10E0512C20E02032A0F48B329A
:100C300069F030F4803259F0833269F420612CC0BD
:100C40008D3239F0803339F4216026C0226024606F
:100C500023C0286021C027FD27C030ED380F3A306F
:100C600078F426FF06C0FAE01F9F300D1124132FE1
:100C700013C06AE0569E300D1124532E20620CC022
:100C80008E3221F426FD11C3206406C08C3611F487
:100C9000206802C0883641F4F10193FD859193FFED
:100CA00081911F018111C1CF9BEB980F933018F4F4
:100CB0002061805E06C09BE9980F933008F0AAC1BE
:100CC0002F7E26FF16E02F73722E853621F4F22F29
:100CD000F0647F2E08C0863621F4622F6068762E7D
:100CE00002C01111115077FE07C01C3348F4442490
:100CF0004394410E27E00BC0183030F4212F06C07A
:100D000027E04CE3442E03C027E017E0412C5601B6
:100D100074E0A70EB11CF60160817181828193811C
:100D2000042DA4010E949C096C01098100FF02C0EE
:100D300003FF06C071FC07C072FC08C0612C08C02C
:100D40003DE2632E05C02BE2622E02C090E2692EC6
:100D5000802F8C7099F1662011F084E001C083E04F
:100D6000851510F0512C0BC0581A73FC08C0B70140
:100D700080E290E00E948A0A5A94C9F7F3CF662075
:100D800029F0B701862D90E00E948A0A03FD03C076
:100D90000CE610E002C008E610E0F72DF0717F2E9F
:100DA000F8018491882309F476C271108052B7014A
:100DB00090E00E948A0A0F5F1F4FF2CF77FE0FC0AC
:100DC0004C0C04FF04C08A81813309F44A94141442
:100DD00074F5F8E0F41578F588E0482E2CC076FC20
:100DE0002AC0812F90E08C159D059CF06CEFC616F3
:100DF0006FEFD60674F0772D7068772E0AC0E2E0A8
:100E0000F0E0EC0FFD1FE10FF11D8081803319F43C
:100E100011501111F4CF77FE0EC044244394410EBB
:100E2000812F90E0C816D9062CF41C1904C0442464
:100E3000439401C010E077FE07C01C141D043CF46D
:100E400096012F5F3F4F05C025E030E002C021E052
:100E500030E0662011F02F5F3F4F112331F0412F1A
:100E600050E04F5F5F4F240F351F452D50E0241792
:100E7000350714F4521A01C0512C872D897049F49A
:100E8000552039F0B70180E290E00E948A0A5A9416
:100E9000F7CF662029F0B701862D90E00E948A0ADC
:100EA00073FC09C0552039F0B70180E390E00E943F
:100EB0008A0A5A94F7CF77FE5FC09C2D8D2DD7FEFE
:100EC00002C090E080E0692E782E40E050E0C6013C
:100ED000841991099D878C87960126193709280D59
:100EE000391D812F90E0EE27FF27E81BF90BFF87C4
:100EF000EE87FFEF6F167F0669F4B7018EE290E090
:100F00002B8B3A8B488B598B0E948A0A59894889C6
:100F10003A892B89C614D70454F06C857D856615F3
:100F200077052CF4F901E40FF51F818101C080E3FE
:100F300071E0671A71084F5F5F4FEE85FF856E168F
:100F40007F066CF0B70190E02B8B3A8B488B598B66
:100F50000E948A0A2B893A8948895989CACF6C1418
:100F60007D0439F49A81963318F4953311F404FF13
:100F700081E3B70190E04BC08A81813309F00F7E95
:100F8000B70190E00E948A0A111105C074FE18C0D2
:100F900085E490E017C0B7018EE290E00E948A0AD3
:100FA00082E066246394680EF401E80FF11D8081ED
:100FB000B70190E00E948A0A115041F3862DF1CFCB
:100FC00085E690E0B7010E948A0AD7FC05C0C114EB
:100FD000D10439F404FF05C0D194C194D1088DE245
:100FE00001C08BE2B70190E00E948A0A80E36AE0C8
:100FF000C616D1042CF08F5FFAE0CF1AD108F7CFD4
:10100000B70190E00E948A0AB701C601C0960E940B
:101010008A0A41C1833631F0833779F0833509F08C
:1010200058C021C0560172E0A70EB11CF6018081A4
:10103000898301E010E0640114C05601F2E0AF0EB4
:10104000B11CF601C080D18026FF03C0612F70E083
:1010500002C06FEF7FEFC6012B8B0E947F0A8C01CD
:101060002B892F7715C05601F2E0AF0EB11CF601A7
:10107000C080D18026FF03C0612F70E002C06FEFF7
:101080007FEFC6012B8B0E94740A8C012B8920688C
:10109000722E23FD1AC0852D90E008171907A8F4B9
:1010A000B70180E290E00E948A0A5A94F4CFF601D8
:1010B00077FC859177FE81916F01B70190E00E94E6
:1010C0008A0A51105A94015011090115110579F736
:1010D000E2C0843611F0893651F5560127FF09C068
:1010E000F4E0AF0EB11CF6016081718182819381C1
:1010F0000AC0F2E0AF0EB11CF60160817181882751
:1011000077FD8095982F022F0F7697FF08C0909556
:101110008095709561957F4F8F4F9F4F00682AE0B3
:1011200030E0A4010E94BC0AC82EC8183EC0022F9D
:10113000853721F40F7E2AE030E01DC0097F8F360D
:1011400091F018F4883559F0B0C0803719F088371D
:1011500011F0ABC0006104FF09C0046007C024FFA8
:1011600008C0066006C028E030E005C020E130E09D
:1011700002C020E132E0560107FF09C0F4E0AF0EE3
:10118000B11CF601608171818281938108C0F2E017
:10119000AF0EB11CF6016081718180E090E0A40186
:1011A0000E94BC0AC82EC8180F7706FF0BC0202F5C
:1011B0002E7FC11650F404FF0AC002FD08C0202F84
:1011C0002E7E05C0DC2C202F03C0DC2C01C0D12ECC
:1011D00024FF0DC0FE01EC0DF11D8081803311F460
:1011E000297E09C022FF06C0D394D39404C0822F65
:1011F000867809F0D39423FD13C020FF06C01C2D70
:10120000D51418F4150D1D19D52CD51468F4B70193
:1012100080E290E02B8B0E948A0AD3942B89F5CF31
:10122000D51410F45D1801C0512C24FF12C0B70171
:1012300080E390E02B8B0E948A0A2B8922FF17C043
:1012400021FF03C088E590E002C088E790E0B70185
:101250000CC0822F867859F021FD02C080E201C0C7
:101260008BE227FD8DE2B70190E00E948A0AC11649
:1012700038F4B70180E390E00E948A0A1150F7CF5A
:10128000CA94F401EC0DF11D8081B70190E00E9439
:101290008A0AC110F5CF552009F4C2CCB70180E20B
:1012A00090E00E948A0A5A94F6CFF70186819781CE
:1012B00002C08FEF9FEF6396E2E10C947B092F92BF
:1012C0003F924F925F926F927F928F929F92AF92D6
:1012D000BF92CF92DF92EF92FF920F931F93CF9323
:1012E000DF93CDB7DEB7CA1BDB0B0FB6F894DEBFBA
:1012F0000FBECDBF09942A88398848885F846E84E0
:101300007D848C849B84AA84B984C884DF80EE8029
:10131000FD800C811B81AA81B981CE0FD11D0FB632
:10132000F894DEBF0FBECDBFED010895EE0FFF1F95
:101330000590F491E02D0994283008F027E0332738
:10134000DA01990F311D87FD9160009661057105E5
:1013500039F432602E5F3D9330E32A95E1F708952A
:101360009F3F30F080387105610509F03C5F3C5FBC
:101370003D93913008F08068911DDF93CF931F93C8
:101380000F93FF92EF92192F987F9695E92F9695DC
:101390009695E90FFF27E653FF4F99273327EE2451
:1013A000FF24A701E70105900894079428F4360F5D
:1013B000E71EF81E491F511D660F771F881F991FD2
:1013C0000694A1F70590079428F4E70EF81E491F2C
:1013D000561FC11D770F881F991F661F0694A1F71E
:1013E0000590079428F4F80E491F561FC71FD11DFA
:1013F000880F991F661F771F0694A1F70590079421
:1014000020F4490F561FC71FD81F990F661F771F5B
:10141000881F0694A9F784911095177041F0D6950E
:10142000C79557954795F794E7941A95C1F7E0E764
:10143000F0E068941590159135916591959105901E
:101440007FE27395E118F10A430B560BC90BD009E3
:10145000C0F7E10CF11E431F561FC91FD01D7EF4BB
:10146000703311F48A95E6CFE894015030F0080FFC
:101470000AF40027021708F4202F2395022F7A334D
:1014800028F079E37D932A95E9F710C07D932A959A
:1014900089F6069497956795379517951794E118EF
:1014A000F10A430B560BC90BD00998F023957E9196
:1014B00073957A3308F070E37C932013B8F77E912C
:1014C00070617D9330F0839571E37D9370E32A958D
:1014D000E1F71124EF90FF900F911F91CF91DF91D1
:1014E000992787FD90950895FC0105906150704003
:1014F0000110D8F7809590958E0F9F1F0895FC01DD
:101500006150704001900110D8F7809590958E0F32
:101510009F1F08950F931F93CF93DF93182F092FC9
:10152000EB018B8181FD03C08FEF9FEF20C082FF15
:1015300010C04E815F812C813D81421753077CF49E
:10154000E881F9819F012F5F3F4F39832883108302
:1015500006C0E885F985812F0995892B29F72E8109
:101560003F812F5F3F4F3F832E83812F902FDF914D
:10157000CF911F910F910895FA01AA27283051F1B8
:10158000203181F1E8946F936E7F6E5F7F4F8F4FB4
:101590009F4FAF4FB1E03ED0B4E03CD0670F781F13
:1015A000891F9A1FA11D680F791F8A1F911DA11DF8
:1015B0006A0F711D811D911DA11D20D009F4689431
:1015C0003F912AE0269F11243019305D3193DEF6D9
:1015D000CF010895462F4770405D4193B3E00FD08F
:1015E000C9F7F6CF462F4F70405D4A3318F0495D7A
:1015F00031FD4052419302D0A9F7EACFB4E0A6955D
:101600009795879577956795BA95C9F7009761057E
:10161000710508959B01AC010A2E069457954795D4
:1016200037952795BA95C9F7620F731F841F951FC9
:08163000A01D0895F894FFCFFE
:10163800434F4D4D204D41535445520A00455200E9
:101648004F4B00544F004D4100686F6E7A610000A7
:00000001FF
